:0A0000000C94F0000C9400000C9426
:10000A0000000C9400000C9400000C9400000C9466
:10001A0000000C9400000C9400000C9400000C9456
:10002A0000000C9400000C9400000C9400000C9446
:10003A0000000C9400000C9400000C9400000C9436
:10004A0000000C9400000C9400001027E8036400E0
:10005A000A00010000100001100001000000FFFF6B
:10006A0000000100010001000100FEFDFBF7303035
:10007A0030303738392F3435362A3132332D003083
:10008A003D2B70617373206973207269676874000D
:10009A00456E7465722070617373776F72643A206B
:1000AA0000706173732069732077726F6E67004501
:1000BA006E7465722070617373776F72643A00456B
:1000CA006E746572206320706173733A006E6F20DC
:1000DA0073706163652E00456E746572206669727D
:1000EA007374207061737300456E746572206E6557
:1000FA007720706173733A006E657720706173734D
:10010A002061646465642E004E6F206D61746368BB
:10011A00696E6700456E746572207365632070614D
:10012A0073733A0080C00800060066000100A2034B
:10013A006E000100A40370000100A603720004000F
:10014A00A80374000400B80378001000BC037C0004
:10015A000E0060028C0011006E029A000E007F02EF
:10016A00AB0010008D02B9000E009D02C9001100FB
:10017A00AB029A000E00BC02C9000A00CA02D700EC
:10018A001000D402B9001100E402E1001000F502E7
:10019A00F20010000503020110001503B900100057
:1001AA002503020110003503B9000C0045031201B2
:1001BA0011005103E100100062031E0110007203D6
:1001CA00B90010008203F20010009203B900020085
:1001DA00CC032E010000F894EE27ECBBF1E0FBBF44
:1001EA00EBBFE5BF8DE0A2E0BB27ED938A95E9F767
:1001FA0080E098E0A0E6ED930197E9F7E0E3F1E00B
:10020A0085919591009761F0A591B591059015900A
:10021A00BF01F00105900D920197E1F7FB01F0CFC4
:10022A00EFE5EDBFE8E0EEBFC0E6D2E00C9437039D
:10023A00E1E07E2E5524E3E0E51530F00E940E043D
:10024A0009F077245394F7CF7720B1F40E941A0467
:10025A00E3E0E51550F00E94200429F07724E1E05C
:10026A00F0E0E883F9835394F3CFE881F98130977A
:10027A0011F4E1E07E2E22967720B1F40E941A044E
:10028A00E3E0E51550F00E942C0429F07724E1E020
:10029A00F0E0E883F9835394F3CFE881F98130974A
:1002AA0011F4E1E07E2E2296E1E0E715A9F40E941E
:1002BA00A203A0E6B2E00E94CF036624929A0E94AB
:1002CA00380492980E94A2030A2C0B2821F4AEE665
:1002DA00B2E00E94CF0334C00E94A203AFE7B2E0AB
:1002EA000E94CF036394939A0E9438049398E3E0A0
:1002FA00E61599F45524E7E05E1670F4949A0E9484
:10030A003C0494980E943C04A89A0E943C04A89831
:10031A000E943C045394EFCF66240E94A2030A2C45
:10032A000B2819F4ADE8B2E007C0E1E0F0E0EA1505
:10033A00FB0531F4ADE9B2E00E94CF030E9440040C
:10034A0008955524E3E0E51508F48BC1E52DF0E0A6
:10035A00E855FC4FE081E8BBB49906C00E94450409
:10036A00B49902C088249924B59907C00E9445040B
:10037A00B59903C0E1E0F0E04F01B69907C00E94C9
:10038A004504B69903C0E2E0F0E04F01B79907C00F
:10039A000E944504B79903C0E3E0F0E04F01EFEF94
:1003AA00FFEFE815F90509F45AC1E3E0E51511F480
:1003BA00B49B01C009C00E94A203ABEAB2E00E944A
:1003CA00CF03AA24BB2447C1E3E0E51511F4B79B88
:1003DA0001C01CC0E2E0F0E0EC15FD0544F00E940B
:1003EA00A203E1E0F0E05F01ACEBB2E00AC00E94D8
:1003FA00A203AAECB2E00E9449040E94A203A4ED5F
:10040A00B2E00E94CF030E94400426C1552011F495
:10041A00B79B01C00AC0E3E0F0E05F010E94A203BB
:10042A00A4EEB2E00E94CF0317C1AAE20E94B00371
:10043A00E42D4394F0E0E455FC4FBF01A52DE4E020
:10044A00EA9FF001E80DF91DE454FC4FE081DB015D
:10045A00EC93E4E0E41509F0FFC00A2C0B2811F430
:10046A00E7DEF9C0E1E0F0E0EA15FB0561F4E0DE61
:10047A00E1E0E71539F4A5EFB2E00E944C04E2E0AE
:10048A00F0E05F01E8C0E2E0F0E0EA15FB05C9F53B
:10049A00E1E0F0E0EC15FD05A9F45524E4E05E1670
:1004AA0020F40E944F045394F9CF0E945A04A5E005
:1004BA00B3E00E9449040E94A203AA24BB24A5E136
:1004CA00B3E019C0E2E0F0E0EC15FD05C9F45524EB
:1004DA00E4E05E1620F40E9460045394F9CF0E946F
:1004EA005A04A5E2B3E00E9449040E94A203AA2486
:1004FA00BB24A5E3B3E00E94CF030E944004442436
:10050A00ABC0E3E0F0E0EA15FB0509F063C0E1E007
:10051A00F0E0E093A203F093A303E093A403F09323
:10052A00A503E093A603F093A7035524E4E05E161F
:10053A0050F40E940E0429F0E0E0E093A203E09355
:10054A00A3035394F3CF5524E4E05E1650F40E94BB
:10055A00200429F0E0E0E093A403E093A503539478
:10056A00F3CF5524E4E05E1650F40E942C0429F0DF
:10057A00E0E0E093A603E093A7035394F3CFE0915E
:10058A00A203F091A303309761F4E091A403F091E0
:10059A00A503309731F4E091A603F091A7033097B1
:1005AA0009F00DC00E94A203A5E4B3E00E94490429
:1005BA000E94A203A1E5B3E00E944C0409C00E9474
:1005CA00A203A2E6B3E00E944C04E4E0F0E05F017B
:1005DA00442442C0E4E0F0E0EA15FB05E9F5E091C5
:1005EA00A203F091A303309789F05524E4E05E1644
:1005FA0060F4A52DB0E0A854BC4FE52DF0E0E45519
:10060A00FC4FE081EC935394F1CF1DC0E091A40319
:10061A00F091A503309749F05524E4E05E1620F4E2
:10062A000E944F045394F9CF0EC0E091A603F091B3
:10063A00A703309741F05524E4E05E1620F40E94A7
:10064A0060045394F9CFAA24BB240E94A203A2E710
:10065A00B3E00E944C044424EFEFFFEF4F015394A0
:10066A0071CE0895E0E0EABBEBBBEFE0E7BBE0EF59
:10067A00E8BBE1E0E4BBE0E0E5BBEEE1E1BBE0E0E2
:10068A00E2BBE3BFE2BFECBFEFBDEEBDEDBDECBD2B
:10069A00E7BDE6BDEBBDEABDE9BDE8BDE2BDE5BD2E
:1006AA00E4BDE3BDE9BFE5BFE4BFEAB9E0E8E8B904
:1006BA00E0E0E0BFE6B9EDB9E6BFA0E10E94E003E1
:1006CA00A2E9B3E00E944C043CDEFECFFFCF1A93AE
:1006DA001A2FEBB3EF70AE2FE12FE07FEA2BEBBBC3
:1006EA008DE08A95F1F7DA9A8DE08A95F1F7DA9832
:1006FA008DE08A95F1F78BC0AA93A881E8DFE8819B
:10070A00E295E883A881E3DF85E88A95F1F72196E7
:10071A0008951A930A931A2F0A81E12FF0E0E453FD
:10072A00FC4FE081E00FAE2FE7DF0093D003109378
:10073A00D1031981088123960895A2E00E946B04CF
:10074A00ACE0DADFA1E00E946B04E0E0E093D103C1
:10075A00E093D00308951A931A2F1A3031F0E091DA
:10076A00D203A091D003AE1758F0E0E0EA93A0912B
:10077A00D103AF5FA093D103CCDF1A3009F447C08D
:10078A00E091D003EF5FE093D003D89AA12FB4DFB2
:10079A00D8983DC00E9479049D01D9012F5F3F4F2F
:1007AA00EC911E2FE03019F0A12FD5DFF6CF0E9471
:1007BA007E04249608951A931A2FEAB3E06FEABBCF
:1007CA00D29AD09AD19ADA98D898D9981093D20313
:1007DA00E12FE058E093CE03E12FE054E093CF03FA
:1007EA000E943C040E9471040E9471040E947104D8
:1007FA00A0E26DDF88EC90E00197F1F7A8E27CDFD8
:10080A00A4E07ADFA5E878DFA6E076DF96DF199123
:10081A000895E52DF0E0E854FC4FA081E52DF0E0C5
:10082A00E455FC4FE081EA1708952297E0E0E88357
:10083A00E98355240895E52DF0E0EC54FC4FA0819E
:10084A00E52DF0E0E455FC4FE081EA170895E52D27
:10085A00F0E0E055FC4FA081E52DF0E0E455FC4FB7
:10086A00E081EA170895A8ECB0E00C948304A4E1AF
:10087A00B0E00C948304E0E0EA93A1E00C948E03C8
:10088A00AFE0B0E00C9483040E94CF03ECCF0E9447
:10089A00CF03F1CFA52DB0E0AC54BC4FE52DF0E06D
:1008AA00E455FC4FE081EC930895F60131966F010F
:1008BA0044240C94A203A52DB0E0A055BC4FE52D0D
:1008CA00F0E0E455FC4FE081EC9308950E94810327
:1008DA00A3E0B0E00C948304A0E30E946C0388ECCC
:1008EA0090E00197F1F708953A932A931A930A939D
:1008FA0008953B812A81198108810895109639F05B
:10090A00A89580ED97E00197F1F71197C9F7089537
:00000001FF
