:0C0000000C945B000C9400000C940000B9
:10000C000C9400000C9400000C9400000C94000064
:10001C000C9400000C9400000C9400000C94000054
:10002C000C9400000C9400000C9400000C94000044
:10003C000C9400000C9400000C9400000C94000034
:10004C000C9400000C9400001027E80364000A00D4
:10005C0001000010000110000100416D697248613F
:10006C0073616E546162616E0039393333313333ED
:10007C0000416D697248205361646567686900349A
:10008C00303031313634330080C00F0060026600EE
:10009C0008006F0275000E0077027D0009008502D2
:1000AC008B0002008E0294000000F894EE27ECBB4B
:1000BC00F1E0FBBFEBBFE5BF8DE0A2E0BB27ED930A
:1000CC008A95E9F780E098E0A0E6ED930197E9F7CF
:1000DC00E6E9F0E085919591009761F0A591B591D5
:1000EC0005901590BF01F00105900D920197E1F775
:1000FC00FB01F0CFEFE5EDBFE8E0EEBFC0E6D2E0EC
:10010C000C948800E0E0EABBEBBBE7BBE8BBE4BBCC
:10011C00E5BBE1BBE2BBE3BFE2BFECBFEFBDEEBDB5
:10012C00EDBDECBDE7BDE6BDEBBDEABDE9BDE8BD8F
:10013C00E2BDE5BDE4BDE3BDE9BFE5BFE4BFEAB99F
:10014C00E0E8E8B9E0E0E0BFE6B9EDB9E6BFA0E170
:10015C0079D00E945701A0E6B2E00E945D01AFE6A3
:10016C00B2E05FD00E945701A7E7B2E00E945D01A8
:10017C00A5E8B2E056D0EDCFFFCF1A931A2FEBB310
:10018C00EF70AE2FE12FE07FEA2BEBBB8DE08A9571
:10019C00F1F7DA9A8DE08A95F1F7DA988DE08A9585
:1001AC00F1F77DC0AA93A881E8DFE881E295E883A6
:1001BC00A881E3DF85E88A95F1F7219608951A93D3
:1001CC000A931A2F0A81E12FF0E0E257FD4FE081EC
:1001DC00E00FAE2FE7DF502E412E198108812396B8
:1001EC000895A2E00E946401ACE0DCDFA1E00E9473
:1001FC006401E0E04E2E5E2E08951A931A2F1A30E9
:10020C0011F0571440F0E0E0EA934394A42DD7DFAB
:10021C001A3009F444C05394D89AA12FC3DFD8984C
:10022C003EC00E9472019D01D9012F5F3F4FEC919E
:10023C001E2FE03019F0A12FE0DFF6CF0E947701DE
:10024C00249608951A931A2FEAB3E06FEABBD29A58
:10025C00D09AD19ADA98D898D998712EE12FE05883
:10026C00E0939002E12FE054E0939102A4E1B0E01E
:10027C000E947C010E946A010E946A010E946A012C
:10028C00A0E27BDF88EC90E00197F1F7A8E28ADF2F
:10029C00A4E088DFA5E886DFA6E084DFA2DF199161
:1002AC000895A4E6B0E00E947C010C94F7000E9433
:1002BC001701E0E0EA93A1E00C94E5000E94D8005D
:1002CC00A3E0B0E00C947C01A0E30E94C30088EC96
:1002DC0090E00197F1F708953A932A931A930A93B1
:1002EC0008953B812A81198108810895109639F06F
:1002FC00A89580ED97E00197F1F71197C9F708954C
:00000001FF
